{
  "_format": "hh-sol-artifact-1",
  "contractName": "DocumentVerification",
  "sourceName": "contracts/DocumentVerification.sol",
  "abi": [
    {
      "inputs": [],
      "stateMutability": "nonpayable",
      "type": "constructor"
    },
    {
      "inputs": [],
      "name": "AccessControlBadConfirmation",
      "type": "error"
    },
    {
      "inputs": [
        {
          "internalType": "address",
          "name": "account",
          "type": "address"
        },
        {
          "internalType": "bytes32",
          "name": "neededRole",
          "type": "bytes32"
        }
      ],
      "name": "AccessControlUnauthorizedAccount",
      "type": "error"
    },
    {
      "inputs": [],
      "name": "AlreadyVerified",
      "type": "error"
    },
    {
      "inputs": [],
      "name": "DocumentAlreadyRegistered",
      "type": "error"
    },
    {
      "inputs": [],
      "name": "DocumentNotFound",
      "type": "error"
    },
    {
      "inputs": [],
      "name": "EmptyInput",
      "type": "error"
    },
    {
      "inputs": [],
      "name": "NotAuthorized",
      "type": "error"
    },
    {
      "inputs": [],
      "name": "NotOrganizationAdmin",
      "type": "error"
    },
    {
      "inputs": [],
      "name": "OrganizationNotFound",
      "type": "error"
    },
    {
      "anonymous": false,
      "inputs": [
        {
          "indexed": true,
          "internalType": "bytes32",
          "name": "documentHash",
          "type": "bytes32"
        },
        {
          "indexed": true,
          "internalType": "bytes32",
          "name": "organizationId",
          "type": "bytes32"
        },
        {
          "indexed": false,
          "internalType": "address",
          "name": "admin",
          "type": "address"
        },
        {
          "indexed": false,
          "internalType": "uint256",
          "name": "timestamp",
          "type": "uint256"
        }
      ],
      "name": "DocumentDeleted",
      "type": "event"
    },
    {
      "anonymous": false,
      "inputs": [
        {
          "indexed": true,
          "internalType": "bytes32",
          "name": "documentHash",
          "type": "bytes32"
        },
        {
          "indexed": true,
          "internalType": "bytes32",
          "name": "organizationId",
          "type": "bytes32"
        },
        {
          "indexed": false,
          "internalType": "address",
          "name": "owner",
          "type": "address"
        },
        {
          "indexed": false,
          "internalType": "uint256",
          "name": "timestamp",
          "type": "uint256"
        },
        {
          "indexed": false,
          "internalType": "string",
          "name": "phash",
          "type": "string"
        }
      ],
      "name": "DocumentRegistered",
      "type": "event"
    },
    {
      "anonymous": false,
      "inputs": [
        {
          "indexed": true,
          "internalType": "bytes32",
          "name": "documentHash",
          "type": "bytes32"
        },
        {
          "indexed": true,
          "internalType": "bytes32",
          "name": "organizationId",
          "type": "bytes32"
        },
        {
          "indexed": false,
          "internalType": "address",
          "name": "verifier",
          "type": "address"
        },
        {
          "indexed": false,
          "internalType": "uint256",
          "name": "timestamp",
          "type": "uint256"
        }
      ],
      "name": "DocumentVerified",
      "type": "event"
    },
    {
      "anonymous": false,
      "inputs": [
        {
          "indexed": true,
          "internalType": "bytes32",
          "name": "organizationId",
          "type": "bytes32"
        },
        {
          "indexed": false,
          "internalType": "string",
          "name": "newName",
          "type": "string"
        },
        {
          "indexed": false,
          "internalType": "string",
          "name": "newDescription",
          "type": "string"
        },
        {
          "indexed": false,
          "internalType": "bool",
          "name": "newStatus",
          "type": "bool"
        },
        {
          "indexed": false,
          "internalType": "address",
          "name": "admin",
          "type": "address"
        },
        {
          "indexed": false,
          "internalType": "uint256",
          "name": "timestamp",
          "type": "uint256"
        }
      ],
      "name": "OrganizationEdited",
      "type": "event"
    },
    {
      "anonymous": false,
      "inputs": [
        {
          "indexed": true,
          "internalType": "bytes32",
          "name": "organizationId",
          "type": "bytes32"
        },
        {
          "indexed": false,
          "internalType": "string",
          "name": "name",
          "type": "string"
        },
        {
          "indexed": false,
          "internalType": "address",
          "name": "admin",
          "type": "address"
        },
        {
          "indexed": false,
          "internalType": "uint256",
          "name": "timestamp",
          "type": "uint256"
        }
      ],
      "name": "OrganizationRegistered",
      "type": "event"
    },
    {
      "anonymous": false,
      "inputs": [
        {
          "indexed": true,
          "internalType": "bytes32",
          "name": "role",
          "type": "bytes32"
        },
        {
          "indexed": true,
          "internalType": "bytes32",
          "name": "previousAdminRole",
          "type": "bytes32"
        },
        {
          "indexed": true,
          "internalType": "bytes32",
          "name": "newAdminRole",
          "type": "bytes32"
        }
      ],
      "name": "RoleAdminChanged",
      "type": "event"
    },
    {
      "anonymous": false,
      "inputs": [
        {
          "indexed": true,
          "internalType": "bytes32",
          "name": "role",
          "type": "bytes32"
        },
        {
          "indexed": true,
          "internalType": "address",
          "name": "account",
          "type": "address"
        },
        {
          "indexed": true,
          "internalType": "address",
          "name": "sender",
          "type": "address"
        }
      ],
      "name": "RoleGranted",
      "type": "event"
    },
    {
      "anonymous": false,
      "inputs": [
        {
          "indexed": true,
          "internalType": "bytes32",
          "name": "role",
          "type": "bytes32"
        },
        {
          "indexed": true,
          "internalType": "address",
          "name": "account",
          "type": "address"
        },
        {
          "indexed": true,
          "internalType": "address",
          "name": "sender",
          "type": "address"
        }
      ],
      "name": "RoleRevoked",
      "type": "event"
    },
    {
      "inputs": [],
      "name": "ADMIN_ROLE",
      "outputs": [
        {
          "internalType": "bytes32",
          "name": "",
          "type": "bytes32"
        }
      ],
      "stateMutability": "view",
      "type": "function"
    },
    {
      "inputs": [],
      "name": "DEFAULT_ADMIN_ROLE",
      "outputs": [
        {
          "internalType": "bytes32",
          "name": "",
          "type": "bytes32"
        }
      ],
      "stateMutability": "view",
      "type": "function"
    },
    {
      "inputs": [],
      "name": "USER_ROLE",
      "outputs": [
        {
          "internalType": "bytes32",
          "name": "",
          "type": "bytes32"
        }
      ],
      "stateMutability": "view",
      "type": "function"
    },
    {
      "inputs": [
        {
          "internalType": "address",
          "name": "",
          "type": "address"
        },
        {
          "internalType": "uint256",
          "name": "",
          "type": "uint256"
        }
      ],
      "name": "adminOrganizations",
      "outputs": [
        {
          "internalType": "bytes32",
          "name": "",
          "type": "bytes32"
        }
      ],
      "stateMutability": "view",
      "type": "function"
    },
    {
      "inputs": [
        {
          "internalType": "uint256",
          "name": "",
          "type": "uint256"
        }
      ],
      "name": "allOrganizationIds",
      "outputs": [
        {
          "internalType": "bytes32",
          "name": "",
          "type": "bytes32"
        }
      ],
      "stateMutability": "view",
      "type": "function"
    },
    {
      "inputs": [
        {
          "internalType": "bytes32",
          "name": "organizationId",
          "type": "bytes32"
        },
        {
          "internalType": "bytes32",
          "name": "documentHash",
          "type": "bytes32"
        }
      ],
      "name": "deleteDocument",
      "outputs": [],
      "stateMutability": "nonpayable",
      "type": "function"
    },
    {
      "inputs": [
        {
          "internalType": "bytes32",
          "name": "",
          "type": "bytes32"
        }
      ],
      "name": "documentExists",
      "outputs": [
        {
          "internalType": "bool",
          "name": "",
          "type": "bool"
        }
      ],
      "stateMutability": "view",
      "type": "function"
    },
    {
      "inputs": [
        {
          "internalType": "bytes32",
          "name": "",
          "type": "bytes32"
        }
      ],
      "name": "documents",
      "outputs": [
        {
          "internalType": "bytes32",
          "name": "documentHash",
          "type": "bytes32"
        },
        {
          "internalType": "address",
          "name": "owner",
          "type": "address"
        },
        {
          "internalType": "uint256",
          "name": "timestamp",
          "type": "uint256"
        },
        {
          "internalType": "bool",
          "name": "isVerified",
          "type": "bool"
        },
        {
          "internalType": "bytes32",
          "name": "organizationId",
          "type": "bytes32"
        },
        {
          "internalType": "string",
          "name": "phash",
          "type": "string"
        }
      ],
      "stateMutability": "view",
      "type": "function"
    },
    {
      "inputs": [
        {
          "internalType": "bytes32",
          "name": "_organizationId",
          "type": "bytes32"
        },
        {
          "internalType": "string",
          "name": "_name",
          "type": "string"
        },
        {
          "internalType": "string",
          "name": "_description",
          "type": "string"
        },
        {
          "internalType": "bool",
          "name": "_isActive",
          "type": "bool"
        }
      ],
      "name": "editOrganization",
      "outputs": [],
      "stateMutability": "nonpayable",
      "type": "function"
    },
    {
      "inputs": [
        {
          "internalType": "address",
          "name": "admin",
          "type": "address"
        }
      ],
      "name": "getAdminOrganizations",
      "outputs": [
        {
          "internalType": "bytes32[]",
          "name": "",
          "type": "bytes32[]"
        }
      ],
      "stateMutability": "view",
      "type": "function"
    },
    {
      "inputs": [],
      "name": "getAllOrganizationIds",
      "outputs": [
        {
          "internalType": "bytes32[]",
          "name": "",
          "type": "bytes32[]"
        }
      ],
      "stateMutability": "view",
      "type": "function"
    },
    {
      "inputs": [
        {
          "internalType": "bytes32",
          "name": "_documentHash",
          "type": "bytes32"
        }
      ],
      "name": "getDocumentDetails",
      "outputs": [
        {
          "internalType": "address",
          "name": "owner",
          "type": "address"
        },
        {
          "internalType": "uint256",
          "name": "timestamp",
          "type": "uint256"
        },
        {
          "internalType": "bool",
          "name": "isVerified",
          "type": "bool"
        },
        {
          "internalType": "bytes32",
          "name": "organizationId",
          "type": "bytes32"
        }
      ],
      "stateMutability": "view",
      "type": "function"
    },
    {
      "inputs": [
        {
          "internalType": "bytes32",
          "name": "_organizationId",
          "type": "bytes32"
        }
      ],
      "name": "getOrganizationDetails",
      "outputs": [
        {
          "internalType": "string",
          "name": "name",
          "type": "string"
        },
        {
          "internalType": "string",
          "name": "description",
          "type": "string"
        },
        {
          "internalType": "address",
          "name": "admin",
          "type": "address"
        },
        {
          "internalType": "bool",
          "name": "isActive",
          "type": "bool"
        },
        {
          "internalType": "uint256",
          "name": "createdAt",
          "type": "uint256"
        }
      ],
      "stateMutability": "view",
      "type": "function"
    },
    {
      "inputs": [
        {
          "internalType": "bytes32",
          "name": "role",
          "type": "bytes32"
        }
      ],
      "name": "getRoleAdmin",
      "outputs": [
        {
          "internalType": "bytes32",
          "name": "",
          "type": "bytes32"
        }
      ],
      "stateMutability": "view",
      "type": "function"
    },
    {
      "inputs": [
        {
          "internalType": "address",
          "name": "account",
          "type": "address"
        }
      ],
      "name": "grantAdminRole",
      "outputs": [],
      "stateMutability": "nonpayable",
      "type": "function"
    },
    {
      "inputs": [
        {
          "internalType": "bytes32",
          "name": "role",
          "type": "bytes32"
        },
        {
          "internalType": "address",
          "name": "account",
          "type": "address"
        }
      ],
      "name": "grantRole",
      "outputs": [],
      "stateMutability": "nonpayable",
      "type": "function"
    },
    {
      "inputs": [
        {
          "internalType": "bytes32",
          "name": "role",
          "type": "bytes32"
        },
        {
          "internalType": "address",
          "name": "account",
          "type": "address"
        }
      ],
      "name": "hasRole",
      "outputs": [
        {
          "internalType": "bool",
          "name": "",
          "type": "bool"
        }
      ],
      "stateMutability": "view",
      "type": "function"
    },
    {
      "inputs": [
        {
          "internalType": "bytes32",
          "name": "",
          "type": "bytes32"
        },
        {
          "internalType": "bytes32",
          "name": "",
          "type": "bytes32"
        }
      ],
      "name": "organizationDocuments",
      "outputs": [
        {
          "internalType": "bool",
          "name": "",
          "type": "bool"
        }
      ],
      "stateMutability": "view",
      "type": "function"
    },
    {
      "inputs": [
        {
          "internalType": "bytes32",
          "name": "",
          "type": "bytes32"
        }
      ],
      "name": "organizations",
      "outputs": [
        {
          "internalType": "string",
          "name": "name",
          "type": "string"
        },
        {
          "internalType": "string",
          "name": "description",
          "type": "string"
        },
        {
          "internalType": "address",
          "name": "admin",
          "type": "address"
        },
        {
          "internalType": "bool",
          "name": "isActive",
          "type": "bool"
        },
        {
          "internalType": "uint256",
          "name": "createdAt",
          "type": "uint256"
        }
      ],
      "stateMutability": "view",
      "type": "function"
    },
    {
      "inputs": [
        {
          "internalType": "bytes32",
          "name": "organizationId",
          "type": "bytes32"
        },
        {
          "internalType": "bytes32",
          "name": "_documentHash",
          "type": "bytes32"
        },
        {
          "internalType": "string",
          "name": "phash",
          "type": "string"
        }
      ],
      "name": "registerDocument",
      "outputs": [],
      "stateMutability": "nonpayable",
      "type": "function"
    },
    {
      "inputs": [
        {
          "internalType": "string",
          "name": "_name",
          "type": "string"
        },
        {
          "internalType": "string",
          "name": "_description",
          "type": "string"
        }
      ],
      "name": "registerOrganization",
      "outputs": [],
      "stateMutability": "nonpayable",
      "type": "function"
    },
    {
      "inputs": [
        {
          "internalType": "bytes32",
          "name": "role",
          "type": "bytes32"
        },
        {
          "internalType": "address",
          "name": "callerConfirmation",
          "type": "address"
        }
      ],
      "name": "renounceRole",
      "outputs": [],
      "stateMutability": "nonpayable",
      "type": "function"
    },
    {
      "inputs": [
        {
          "internalType": "bytes32",
          "name": "role",
          "type": "bytes32"
        },
        {
          "internalType": "address",
          "name": "account",
          "type": "address"
        }
      ],
      "name": "revokeRole",
      "outputs": [],
      "stateMutability": "nonpayable",
      "type": "function"
    },
    {
      "inputs": [
        {
          "internalType": "bytes4",
          "name": "interfaceId",
          "type": "bytes4"
        }
      ],
      "name": "supportsInterface",
      "outputs": [
        {
          "internalType": "bool",
          "name": "",
          "type": "bool"
        }
      ],
      "stateMutability": "view",
      "type": "function"
    },
    {
      "inputs": [
        {
          "internalType": "bytes32",
          "name": "_documentHash",
          "type": "bytes32"
        },
        {
          "internalType": "bytes32",
          "name": "_organizationId",
          "type": "bytes32"
        }
      ],
      "name": "verifyDocument",
      "outputs": [],
      "stateMutability": "nonpayable",
      "type": "function"
    }
  ],
  "bytecode": "0x60806040523480156200001157600080fd5b506200001f60003362000053565b506200004d7fa49807205ce4d355092ef5a8a18f56e8913cf4a201fbe287825b095693c21775600062000102565b6200014d565b6000828152602081815260408083206001600160a01b038516845290915281205460ff16620000f8576000838152602081815260408083206001600160a01b03861684529091529020805460ff19166001179055620000af3390565b6001600160a01b0316826001600160a01b0316847f2f8788117e7eff1d82e926ec794901d17c78024a50270940304540a733656f0d60405160405180910390a4506001620000fc565b5060005b92915050565b600082815260208190526040808220600101805490849055905190918391839186917fbd79b86ffe0ab8e8776151514217cd7cacd52c909f66475c3af44e129f0b00ff9190a4505050565b611e69806200015d6000396000f3fe608060405234801561001057600080fd5b50600436106101735760003560e01c806383e5f8d8116100de578063ba51b14e11610097578063d46887ac11610071578063d46887ac146103d9578063d547741f146103ec578063ed9670ec146103ff578063f482b6f11461041257600080fd5b8063ba51b14e14610390578063c634b78e146103a3578063cbfe6d41146103b657600080fd5b806383e5f8d8146102cd5780638e4d0f40146102f15780638fa9a8ce1461033457806391d14854146103475780639be9dba91461035a578063a217fddf1461038857600080fd5b8063248a9ca311610130578063248a9ca3146102235780632b2805db146102465780632f2ff15d1461026b57806336568abe1461027e57806351ee9a381461029157806375b238fc146102a657600080fd5b806301ffc9a7146101785780630c6babbe146101a057806313119161146101b55780631626e1a9146101ea5780631e1655c7146101fd578063247a50d814610210575b600080fd5b61018b610186366004611766565b610425565b60405190151581526020015b60405180910390f35b6101b36101ae366004611797565b61045c565b005b6101dc7f14823911f2da1b49f045a0929a60b8c1f2a7fc8c06c7284ca3e8ab4e193a08c881565b604051908152602001610197565b6101b36101f8366004611802565b610752565b6101b361020b366004611855565b610ab7565b6101b361021e3660046118e6565b610bc4565b6101dc610231366004611946565b60009081526020819052604090206001015490565b610259610254366004611946565b610db7565b604051610197969594939291906119a5565b6101b3610279366004611a08565b610e85565b6101b361028c366004611a08565b610eb0565b610299610ee8565b6040516101979190611a34565b6101dc7fa49807205ce4d355092ef5a8a18f56e8913cf4a201fbe287825b095693c2177581565b6102e06102db366004611946565b610f40565b604051610197959493929190611a78565b6103046102ff366004611946565b611111565b604080516001600160a01b0390951685526020850193909352901515918301919091526060820152608001610197565b6101b3610342366004611797565b611259565b61018b610355366004611a08565b61133e565b61018b610368366004611797565b600560209081526000928352604080842090915290825290205460ff1681565b6101dc600081565b6102e061039e366004611946565b611367565b6101b36103b1366004611ac4565b6114b5565b61018b6103c4366004611946565b60036020526000908152604090205460ff1681565b6101dc6103e7366004611946565b6114ee565b6101b36103fa366004611a08565b61150f565b61029961040d366004611ac4565b611534565b6101dc610420366004611adf565b6115a0565b60006001600160e01b03198216637965db0b60e01b148061045657506301ffc9a760e01b6001600160e01b03198316145b92915050565b600082815260016020526040808220815160a0810190925280548290829061048390611b09565b80601f01602080910402602001604051908101604052809291908181526020018280546104af90611b09565b80156104fc5780601f106104d1576101008083540402835291602001916104fc565b820191906000526020600020905b8154815290600101906020018083116104df57829003601f168201915b5050505050815260200160018201805461051590611b09565b80601f016020809104026020016040519081016040528092919081815260200182805461054190611b09565b801561058e5780601f106105635761010080835404028352916020019161058e565b820191906000526020600020905b81548152906001019060200180831161057157829003601f168201915b505050918352505060028201546001600160a01b038082166020840152600160a01b90910460ff16151560408084019190915260039093015460609092019190915290820151919250166105f557604051639551f8b360e01b815260040160405180910390fd5b60408101516001600160a01b0316331461062257604051631da756df60e31b815260040160405180910390fd5b60008281526003602052604090205460ff16610651576040516328193b9d60e21b815260040160405180910390fd5b600083815260056020908152604080832085845290915290205460ff1661068b576040516328193b9d60e21b815260040160405180910390fd5b600082815260026020819052604082208281556001810180546001600160a01b031916905590810182905560038101805460ff1916905560048101829055906106d76005830182611718565b50506000828152600360209081526040808320805460ff1990811690915586845260058352818420868552835292819020805490931690925581513381524291810191909152849184917f329ee4d053eb63b7cde699b2b8507b838af4c98a0942c2c2e2331a0a6496d8b591015b60405180910390a3505050565b600084815260016020526040808220815160a0810190925280548290829061077990611b09565b80601f01602080910402602001604051908101604052809291908181526020018280546107a590611b09565b80156107f25780601f106107c7576101008083540402835291602001916107f2565b820191906000526020600020905b8154815290600101906020018083116107d557829003601f168201915b5050505050815260200160018201805461080b90611b09565b80601f016020809104026020016040519081016040528092919081815260200182805461083790611b09565b80156108845780601f1061085957610100808354040283529160200191610884565b820191906000526020600020905b81548152906001019060200180831161086757829003601f168201915b505050918352505060028201546001600160a01b038082166020840152600160a01b90910460ff16151560408084019190915260039093015460609092019190915290820151919250166108eb57604051639551f8b360e01b815260040160405180910390fd5b60408101516001600160a01b0316331461091857604051631da756df60e31b815260040160405180910390fd5b60008481526003602052604090205460ff16156109485760405163046bf7c760e51b815260040160405180910390fd5b6040518060c00160405280858152602001336001600160a01b0316815260200142815260200160001515815260200186815260200184848080601f01602080910402602001604051908101604052809392919081815260200183838082843760009201829052509390945250508681526002602081815260409283902085518155908501516001820180546001600160a01b0319166001600160a01b039092169190911790559184015190820155606083015160038201805460ff19169115159190911790556080830151600482015560a08301519091506005820190610a2f9082611ba7565b50505060008481526003602090815260408083208054600160ff19918216811790925589855260058452828520898652909352928190208054909216909217905551859085907f52031612bedf82b57bb1ceec2b090e2e1148704e1cc452cb16acbef24716fd7990610aa8903390429089908990611c90565b60405180910390a35050505050565b600086815260016020526040902060028101546001600160a01b0316610af057604051639551f8b360e01b815260040160405180910390fd5b60028101546001600160a01b03163314610b1d57604051631da756df60e31b815260040160405180910390fd5b6000859003610b3f5760405163a447fc5360e01b815260040160405180910390fd5b80610b4b868883611cc2565b5060018101610b5b848683611cc2565b5060028101805460ff60a01b1916600160a01b8415150217905560405187907f6b05e14ea7cd0166aa3bbc004396a23e438e73b60d9ffc21599268abdcbcfd2190610bb3908990899089908990899033904290611d83565b60405180910390a250505050505050565b6000839003610be65760405163a447fc5360e01b815260040160405180910390fd5b600084843342604051602001610bff9493929190611dd3565b60408051601f19818403018152828252805160209182012060c0601f89018390049092028401820190925260a083018781529193508291908890889081908501838280828437600092019190915250505090825250604080516020601f870181900481028201810190925285815291810191908690869081908401838280828437600092018290525093855250503360208085019190915260016040808601829052426060909601959095528684529052502081518190610cc09082611ba7565b5060208201516001820190610cd59082611ba7565b5060408281015160028301805460608601511515600160a01b026001600160a81b03199091166001600160a01b0390931692909217919091179055608090920151600390910155336000818152600460209081528382208054600181810183559184529183209091018590556006805491820181559091527ff652222313e28459528d920b65115c16c04f3efc82aaedc97be59f3f377c0d3f01839055905182917f23596683ea7055a7257a2c7f3f68451d1616dd7ac2d71d534648e34a79b8311791610da89189918991904290611e03565b60405180910390a25050505050565b600260208190526000918252604090912080546001820154928201546003830154600484015460058501805494966001600160a01b031695939460ff909316939192610e0290611b09565b80601f0160208091040260200160405190810160405280929190818152602001828054610e2e90611b09565b8015610e7b5780601f10610e5057610100808354040283529160200191610e7b565b820191906000526020600020905b815481529060010190602001808311610e5e57829003601f168201915b5050505050905086565b600082815260208190526040902060010154610ea0816115d1565b610eaa83836115de565b50505050565b6001600160a01b0381163314610ed95760405163334bd91960e11b815260040160405180910390fd5b610ee38282611670565b505050565b60606006805480602002602001604051908101604052809291908181526020018280548015610f3657602002820191906000526020600020905b815481526020019060010190808311610f22575b5050505050905090565b606080600080600080600160008881526020019081526020016000206040518060a0016040529081600082018054610f7790611b09565b80601f0160208091040260200160405190810160405280929190818152602001828054610fa390611b09565b8015610ff05780601f10610fc557610100808354040283529160200191610ff0565b820191906000526020600020905b815481529060010190602001808311610fd357829003601f168201915b5050505050815260200160018201805461100990611b09565b80601f016020809104026020016040519081016040528092919081815260200182805461103590611b09565b80156110825780601f1061105757610100808354040283529160200191611082565b820191906000526020600020905b81548152906001019060200180831161106557829003601f168201915b505050918352505060028201546001600160a01b038082166020840152600160a01b90910460ff16151560408084019190915260039093015460609092019190915290820151919250166110e957604051639551f8b360e01b815260040160405180910390fd5b8051602082015160408301516060840151608090940151929a91995097509195509350915050565b60008181526003602052604081205481908190819060ff16611146576040516328193b9d60e21b815260040160405180910390fd5b6000858152600260208181526040808420815160c0810183528154815260018201546001600160a01b0316938101939093529283015490820152600382015460ff16151560608201526004820154608082015260058201805491929160a0840191906111b190611b09565b80601f01602080910402602001604051908101604052809291908181526020018280546111dd90611b09565b801561122a5780601f106111ff5761010080835404028352916020019161122a565b820191906000526020600020905b81548152906001019060200180831161120d57829003601f168201915b505050505081525050905080602001518160400151826060015183608001519450945094509450509193509193565b60008281526003602052604090205460ff16611288576040516328193b9d60e21b815260040160405180910390fd5b600081815260056020908152604080832085845290915290205460ff166112c2576040516328193b9d60e21b815260040160405180910390fd5b6000828152600260205260409020600381015460ff16156112f657604051630231faf760e31b815260040160405180910390fd5b60038101805460ff1916600117905560408051338152426020820152839185917f6d4c13423f27e85076d2286014b8ede99a6e64f5eed82ee9f93f647b7b63d2b39101610745565b6000918252602082815260408084206001600160a01b0393909316845291905290205460ff1690565b60016020526000908152604090208054819061138290611b09565b80601f01602080910402602001604051908101604052809291908181526020018280546113ae90611b09565b80156113fb5780601f106113d0576101008083540402835291602001916113fb565b820191906000526020600020905b8154815290600101906020018083116113de57829003601f168201915b50505050509080600101805461141090611b09565b80601f016020809104026020016040519081016040528092919081815260200182805461143c90611b09565b80156114895780601f1061145e57610100808354040283529160200191611489565b820191906000526020600020905b81548152906001019060200180831161146c57829003601f168201915b50505050600283015460039093015491926001600160a01b03811692600160a01b90910460ff16915085565b60006114c0816115d1565b6114ea7fa49807205ce4d355092ef5a8a18f56e8913cf4a201fbe287825b095693c2177583610e85565b5050565b600681815481106114fe57600080fd5b600091825260209091200154905081565b60008281526020819052604090206001015461152a816115d1565b610eaa8383611670565b6001600160a01b03811660009081526004602090815260409182902080548351818402810184019094528084526060939283018282801561159457602002820191906000526020600020905b815481526020019060010190808311611580575b50505050509050919050565b600460205281600052604060002081815481106115bc57600080fd5b90600052602060002001600091509150505481565b6115db81336116db565b50565b60006115ea838361133e565b611668576000838152602081815260408083206001600160a01b03861684529091529020805460ff191660011790556116203390565b6001600160a01b0316826001600160a01b0316847f2f8788117e7eff1d82e926ec794901d17c78024a50270940304540a733656f0d60405160405180910390a4506001610456565b506000610456565b600061167c838361133e565b15611668576000838152602081815260408083206001600160a01b0386168085529252808320805460ff1916905551339286917ff6391f5c32d9c69d2a47ea670b442974b53935d1edc7fd64eb21e047a839171b9190a4506001610456565b6116e5828261133e565b6114ea5760405163e2517d3f60e01b81526001600160a01b03821660048201526024810183905260440160405180910390fd5b50805461172490611b09565b6000825580601f10611734575050565b601f0160209004906000526020600020908101906115db91905b80821115611762576000815560010161174e565b5090565b60006020828403121561177857600080fd5b81356001600160e01b03198116811461179057600080fd5b9392505050565b600080604083850312156117aa57600080fd5b50508035926020909101359150565b60008083601f8401126117cb57600080fd5b50813567ffffffffffffffff8111156117e357600080fd5b6020830191508360208285010111156117fb57600080fd5b9250929050565b6000806000806060858703121561181857600080fd5b8435935060208501359250604085013567ffffffffffffffff81111561183d57600080fd5b611849878288016117b9565b95989497509550505050565b6000806000806000806080878903121561186e57600080fd5b86359550602087013567ffffffffffffffff8082111561188d57600080fd5b6118998a838b016117b9565b909750955060408901359150808211156118b257600080fd5b506118bf89828a016117b9565b909450925050606087013580151581146118d857600080fd5b809150509295509295509295565b600080600080604085870312156118fc57600080fd5b843567ffffffffffffffff8082111561191457600080fd5b611920888389016117b9565b9096509450602087013591508082111561193957600080fd5b50611849878288016117b9565b60006020828403121561195857600080fd5b5035919050565b6000815180845260005b8181101561198557602081850181015186830182015201611969565b506000602082860101526020601f19601f83011685010191505092915050565b86815260018060a01b0386166020820152846040820152831515606082015282608082015260c060a082015260006119e060c083018461195f565b98975050505050505050565b80356001600160a01b0381168114611a0357600080fd5b919050565b60008060408385031215611a1b57600080fd5b82359150611a2b602084016119ec565b90509250929050565b6020808252825182820181905260009190848201906040850190845b81811015611a6c57835183529284019291840191600101611a50565b50909695505050505050565b60a081526000611a8b60a083018861195f565b8281036020840152611a9d818861195f565b6001600160a01b039690961660408401525050911515606083015260809091015292915050565b600060208284031215611ad657600080fd5b611790826119ec565b60008060408385031215611af257600080fd5b611afb836119ec565b946020939093013593505050565b600181811c90821680611b1d57607f821691505b602082108103611b3d57634e487b7160e01b600052602260045260246000fd5b50919050565b634e487b7160e01b600052604160045260246000fd5b601f821115610ee357600081815260208120601f850160051c81016020861015611b805750805b601f850160051c820191505b81811015611b9f57828155600101611b8c565b505050505050565b815167ffffffffffffffff811115611bc157611bc1611b43565b611bd581611bcf8454611b09565b84611b59565b602080601f831160018114611c0a5760008415611bf25750858301515b600019600386901b1c1916600185901b178555611b9f565b600085815260208120601f198616915b82811015611c3957888601518255948401946001909101908401611c1a565b5085821015611c575787850151600019600388901b60f8161c191681555b5050505050600190811b01905550565b81835281816020850137506000828201602090810191909152601f909101601f19169091010190565b60018060a01b0385168152836020820152606060408201526000611cb8606083018486611c67565b9695505050505050565b67ffffffffffffffff831115611cda57611cda611b43565b611cee83611ce88354611b09565b83611b59565b6000601f841160018114611d225760008515611d0a5750838201355b600019600387901b1c1916600186901b178355611d7c565b600083815260209020601f19861690835b82811015611d535786850135825560209485019460019092019101611d33565b5086821015611d705760001960f88860031b161c19848701351681555b505060018560011b0183555b5050505050565b60a081526000611d9760a08301898b611c67565b8281036020840152611daa81888a611c67565b951515604084015250506001600160a01b03929092166060830152608090910152949350505050565b8385823760609290921b6bffffffffffffffffffffffff1916919092019081526014810191909152603401919050565b606081526000611e17606083018688611c67565b6001600160a01b0394909416602083015250604001529291505056fea2646970667358221220ba5019737c57d043c0c3621e76503db0a7c4f441ce545dff0b4a1d2010a62e0664736f6c63430008140033",
  "linkReferences": {},
  "deployedLinkReferences": {}
}